{
  "contractName": "DaiMaker",
  "abi": [
    {
      "constant": true,
      "inputs": [
        {
          "name": "x",
          "type": "uint256"
        },
        {
          "name": "y",
          "type": "uint256"
        }
      ],
      "name": "rdiv",
      "outputs": [
        {
          "name": "z",
          "type": "uint256"
        }
      ],
      "payable": false,
      "stateMutability": "pure",
      "type": "function"
    },
    {
      "constant": true,
      "inputs": [],
      "name": "weth",
      "outputs": [
        {
          "name": "",
          "type": "address"
        }
      ],
      "payable": false,
      "stateMutability": "view",
      "type": "function"
    },
    {
      "constant": true,
      "inputs": [],
      "name": "maker",
      "outputs": [
        {
          "name": "",
          "type": "address"
        }
      ],
      "payable": false,
      "stateMutability": "view",
      "type": "function"
    },
    {
      "constant": false,
      "inputs": [
        {
          "name": "daiAmount",
          "type": "uint256"
        },
        {
          "name": "cdpOwner",
          "type": "address"
        },
        {
          "name": "daiOwner",
          "type": "address"
        }
      ],
      "name": "makeDai",
      "outputs": [
        {
          "name": "cdpId",
          "type": "bytes32"
        }
      ],
      "payable": true,
      "stateMutability": "payable",
      "type": "function"
    },
    {
      "constant": true,
      "inputs": [
        {
          "name": "x",
          "type": "uint256"
        },
        {
          "name": "y",
          "type": "uint256"
        }
      ],
      "name": "wdiv",
      "outputs": [
        {
          "name": "z",
          "type": "uint256"
        }
      ],
      "payable": false,
      "stateMutability": "pure",
      "type": "function"
    },
    {
      "constant": true,
      "inputs": [],
      "name": "peth",
      "outputs": [
        {
          "name": "",
          "type": "address"
        }
      ],
      "payable": false,
      "stateMutability": "view",
      "type": "function"
    },
    {
      "constant": true,
      "inputs": [],
      "name": "dai",
      "outputs": [
        {
          "name": "",
          "type": "address"
        }
      ],
      "payable": false,
      "stateMutability": "view",
      "type": "function"
    },
    {
      "inputs": [
        {
          "name": "_maker",
          "type": "address"
        }
      ],
      "payable": false,
      "stateMutability": "nonpayable",
      "type": "constructor"
    },
    {
      "anonymous": false,
      "inputs": [
        {
          "indexed": true,
          "name": "daiOwner",
          "type": "address"
        },
        {
          "indexed": true,
          "name": "cdpOwner",
          "type": "address"
        },
        {
          "indexed": false,
          "name": "ethAmount",
          "type": "uint256"
        },
        {
          "indexed": false,
          "name": "daiAmount",
          "type": "uint256"
        },
        {
          "indexed": false,
          "name": "pethAmount",
          "type": "uint256"
        }
      ],
      "name": "MakeDai",
      "type": "event"
    }
  ],
  "bytecode": "0x6060604052341561000f57600080fd5b6040516020806115d983398101604052808051906020019091905050806000806101000a81548173ffffffffffffffffffffffffffffffffffffffff021916908373ffffffffffffffffffffffffffffffffffffffff1602179055506000809054906101000a900473ffffffffffffffffffffffffffffffffffffffff1673ffffffffffffffffffffffffffffffffffffffff16637bd2bea76000604051602001526040518163ffffffff167c0100000000000000000000000000000000000000000000000000000000028152600401602060405180830381600087803b15156100f857600080fd5b6102c65a03f1151561010957600080fd5b50505060405180519050600160006101000a81548173ffffffffffffffffffffffffffffffffffffffff021916908373ffffffffffffffffffffffffffffffffffffffff1602179055506000809054906101000a900473ffffffffffffffffffffffffffffffffffffffff1673ffffffffffffffffffffffffffffffffffffffff16630f8a771e6000604051602001526040518163ffffffff167c0100000000000000000000000000000000000000000000000000000000028152600401602060405180830381600087803b15156101e057600080fd5b6102c65a03f115156101f157600080fd5b50505060405180519050600260006101000a81548173ffffffffffffffffffffffffffffffffffffffff021916908373ffffffffffffffffffffffffffffffffffffffff1602179055506000809054906101000a900473ffffffffffffffffffffffffffffffffffffffff1673ffffffffffffffffffffffffffffffffffffffff16639166cba46000604051602001526040518163ffffffff167c0100000000000000000000000000000000000000000000000000000000028152600401602060405180830381600087803b15156102c857600080fd5b6102c65a03f115156102d957600080fd5b50505060405180519050600360006101000a81548173ffffffffffffffffffffffffffffffffffffffff021916908373ffffffffffffffffffffffffffffffffffffffff160217905550506112a6806103336000396000f300606060405260043610610083576000357c0100000000000000000000000000000000000000000000000000000000900463ffffffff1680630e2286d3146100885780633fc8cef3146100c857806350655d8c1461011d5780635e5d926c146101725780635fde731c146101e45780637d211c7514610224578063f4b9fa7514610279575b600080fd5b341561009357600080fd5b6100b260048080359060200190919080359060200190919050506102ce565b6040518082815260200191505060405180910390f35b34156100d357600080fd5b6100db61030e565b604051808273ffffffffffffffffffffffffffffffffffffffff1673ffffffffffffffffffffffffffffffffffffffff16815260200191505060405180910390f35b341561012857600080fd5b610130610334565b604051808273ffffffffffffffffffffffffffffffffffffffff1673ffffffffffffffffffffffffffffffffffffffff16815260200191505060405180910390f35b6101c6600480803590602001909190803573ffffffffffffffffffffffffffffffffffffffff1690602001909190803573ffffffffffffffffffffffffffffffffffffffff16906020019091905050610359565b60405180826000191660001916815260200191505060405180910390f35b34156101ef57600080fd5b61020e6004808035906020019091908035906020019091905050611162565b6040518082815260200191505060405180910390f35b341561022f57600080fd5b61023761119e565b604051808273ffffffffffffffffffffffffffffffffffffffff1673ffffffffffffffffffffffffffffffffffffffff16815260200191505060405180910390f35b341561028457600080fd5b61028c6111c4565b604051808273ffffffffffffffffffffffffffffffffffffffff1673ffffffffffffffffffffffffffffffffffffffff16815260200191505060405180910390f35b6000816102fc6102ea856b033b2e3c9fd0803ce80000006111ea565b6002858115156102f657fe5b0461121a565b81151561030557fe5b04905092915050565b600160009054906101000a900473ffffffffffffffffffffffffffffffffffffffff1681565b6000809054906101000a900473ffffffffffffffffffffffffffffffffffffffff1681565b600080600080600080600160009054906101000a900473ffffffffffffffffffffffffffffffffffffffff1673ffffffffffffffffffffffffffffffffffffffff1663d0e30db0346040518263ffffffff167c01000000000000000000000000000000000000000000000000000000000281526004016000604051808303818588803b15156103e757600080fd5b6125ee5a03f115156103f857600080fd5b50505050600160009054906101000a900473ffffffffffffffffffffffffffffffffffffffff1673ffffffffffffffffffffffffffffffffffffffff1663095ea7b36000809054906101000a900473ffffffffffffffffffffffffffffffffffffffff16346000604051602001526040518363ffffffff167c0100000000000000000000000000000000000000000000000000000000028152600401808373ffffffffffffffffffffffffffffffffffffffff1673ffffffffffffffffffffffffffffffffffffffff16815260200182815260200192505050602060405180830381600087803b15156104ea57600080fd5b6102c65a03f115156104fb57600080fd5b50505060405180519050506001610669346106646000809054906101000a900473ffffffffffffffffffffffffffffffffffffffff1673ffffffffffffffffffffffffffffffffffffffff16636c32c0a66000604051602001526040518163ffffffff167c0100000000000000000000000000000000000000000000000000000000028152600401602060405180830381600087803b151561059c57600080fd5b6102c65a03f115156105ad57600080fd5b505050604051805190506000809054906101000a900473ffffffffffffffffffffffffffffffffffffffff1673ffffffffffffffffffffffffffffffffffffffff16637ec9c3b86000604051602001526040518163ffffffff167c0100000000000000000000000000000000000000000000000000000000028152600401602060405180830381600087803b151561064457600080fd5b6102c65a03f1151561065557600080fd5b50505060405180519050611236565b6102ce565b0394506000809054906101000a900473ffffffffffffffffffffffffffffffffffffffff1673ffffffffffffffffffffffffffffffffffffffff1663049878f3866040518263ffffffff167c010000000000000000000000000000000000000000000000000000000002815260040180828152602001915050600060405180830381600087803b15156106fb57600080fd5b6102c65a03f1151561070c57600080fd5b505050600260009054906101000a900473ffffffffffffffffffffffffffffffffffffffff1673ffffffffffffffffffffffffffffffffffffffff166370a08231306000604051602001526040518263ffffffff167c0100000000000000000000000000000000000000000000000000000000028152600401808273ffffffffffffffffffffffffffffffffffffffff1673ffffffffffffffffffffffffffffffffffffffff168152602001915050602060405180830381600087803b15156107d457600080fd5b6102c65a03f115156107e557600080fd5b505050604051805190509350600260009054906101000a900473ffffffffffffffffffffffffffffffffffffffff1673ffffffffffffffffffffffffffffffffffffffff1663095ea7b36000809054906101000a900473ffffffffffffffffffffffffffffffffffffffff16866000604051602001526040518363ffffffff167c0100000000000000000000000000000000000000000000000000000000028152600401808373ffffffffffffffffffffffffffffffffffffffff1673ffffffffffffffffffffffffffffffffffffffff16815260200182815260200192505050602060405180830381600087803b15156108df57600080fd5b6102c65a03f115156108f057600080fd5b50505060405180519050506000809054906101000a900473ffffffffffffffffffffffffffffffffffffffff1673ffffffffffffffffffffffffffffffffffffffff1663fcfff16f6000604051602001526040518163ffffffff167c0100000000000000000000000000000000000000000000000000000000028152600401602060405180830381600087803b151561098857600080fd5b6102c65a03f1151561099957600080fd5b5050506040518051905095506000809054906101000a900473ffffffffffffffffffffffffffffffffffffffff1673ffffffffffffffffffffffffffffffffffffffff1663b3b77a5187866040518363ffffffff167c010000000000000000000000000000000000000000000000000000000002815260040180836000191660001916815260200182815260200192505050600060405180830381600087803b1515610a4457600080fd5b6102c65a03f11515610a5557600080fd5b5050506000809054906101000a900473ffffffffffffffffffffffffffffffffffffffff1673ffffffffffffffffffffffffffffffffffffffff1663440f19ba878b6040518363ffffffff167c010000000000000000000000000000000000000000000000000000000002815260040180836000191660001916815260200182815260200192505050600060405180830381600087803b1515610af757600080fd5b6102c65a03f11515610b0857600080fd5b505050600360009054906101000a900473ffffffffffffffffffffffffffffffffffffffff1673ffffffffffffffffffffffffffffffffffffffff1663a9059cbb888b6000604051602001526040518363ffffffff167c0100000000000000000000000000000000000000000000000000000000028152600401808373ffffffffffffffffffffffffffffffffffffffff1673ffffffffffffffffffffffffffffffffffffffff16815260200182815260200192505050602060405180830381600087803b1515610bd857600080fd5b6102c65a03f11515610be957600080fd5b50505060405180519050506000809054906101000a900473ffffffffffffffffffffffffffffffffffffffff1673ffffffffffffffffffffffffffffffffffffffff1663baa8529c878a6040518363ffffffff167c01000000000000000000000000000000000000000000000000000000000281526004018083600019166000191681526020018273ffffffffffffffffffffffffffffffffffffffff1673ffffffffffffffffffffffffffffffffffffffff16815260200192505050600060405180830381600087803b1515610cbf57600080fd5b6102c65a03f11515610cd057600080fd5b5050503073ffffffffffffffffffffffffffffffffffffffff163192506000831115610d37578773ffffffffffffffffffffffffffffffffffffffff166108fc849081150290604051600060405180830381858888f193505050501515610d3657600080fd5b5b600160009054906101000a900473ffffffffffffffffffffffffffffffffffffffff1673ffffffffffffffffffffffffffffffffffffffff166370a08231306000604051602001526040518263ffffffff167c0100000000000000000000000000000000000000000000000000000000028152600401808273ffffffffffffffffffffffffffffffffffffffff1673ffffffffffffffffffffffffffffffffffffffff168152602001915050602060405180830381600087803b1515610dfc57600080fd5b6102c65a03f11515610e0d57600080fd5b5050506040518051905091506000821115610f0c57600160009054906101000a900473ffffffffffffffffffffffffffffffffffffffff1673ffffffffffffffffffffffffffffffffffffffff1663a9059cbb89846000604051602001526040518363ffffffff167c0100000000000000000000000000000000000000000000000000000000028152600401808373ffffffffffffffffffffffffffffffffffffffff1673ffffffffffffffffffffffffffffffffffffffff16815260200182815260200192505050602060405180830381600087803b1515610eef57600080fd5b6102c65a03f11515610f0057600080fd5b50505060405180519050505b600260009054906101000a900473ffffffffffffffffffffffffffffffffffffffff1673ffffffffffffffffffffffffffffffffffffffff166370a08231306000604051602001526040518263ffffffff167c0100000000000000000000000000000000000000000000000000000000028152600401808273ffffffffffffffffffffffffffffffffffffffff1673ffffffffffffffffffffffffffffffffffffffff168152602001915050602060405180830381600087803b1515610fd157600080fd5b6102c65a03f11515610fe257600080fd5b50505060405180519050905060008211156110e157600260009054906101000a900473ffffffffffffffffffffffffffffffffffffffff1673ffffffffffffffffffffffffffffffffffffffff1663a9059cbb89836000604051602001526040518363ffffffff167c0100000000000000000000000000000000000000000000000000000000028152600401808373ffffffffffffffffffffffffffffffffffffffff1673ffffffffffffffffffffffffffffffffffffffff16815260200182815260200192505050602060405180830381600087803b15156110c457600080fd5b6102c65a03f115156110d557600080fd5b50505060405180519050505b8773ffffffffffffffffffffffffffffffffffffffff168773ffffffffffffffffffffffffffffffffffffffff167fee07a22c3e3170ab0959dac3769da9b40b491ef370dbe9c8192fe7f3cc074877348c8860405180848152602001838152602001828152602001935050505060405180910390a350505050509392505050565b60008161118c61117a85670de0b6b3a76400006111ea565b60028581151561118657fe5b0461121a565b81151561119557fe5b04905092915050565b600260009054906101000a900473ffffffffffffffffffffffffffffffffffffffff1681565b600360009054906101000a900473ffffffffffffffffffffffffffffffffffffffff1681565b6000808214806112095750828283850292508281151561120657fe5b04145b151561121457600080fd5b92915050565b6000828284019150811015151561123057600080fd5b92915050565b6000670de0b6b3a764000061126861124e85856111ea565b6002670de0b6b3a764000081151561126257fe5b0461121a565b81151561127157fe5b049050929150505600a165627a7a7230582073205fa304c193ec896cdeda5be6c8a1dbc5b496283690a12cfa6657ba50264b0029",
  "source": "pragma solidity 0.4.18;\n\nimport \"./IMaker.sol\";\nimport \"./ERC20.sol\";\nimport \"./IWETH.sol\";\nimport \"./DSMath.sol\";\n\ncontract DaiMaker is DSMath {\n    IMaker public maker;\n    ERC20 public weth;\n    ERC20 public peth;\n    ERC20 public dai;\n\n    event MakeDai(address indexed daiOwner, address indexed cdpOwner, uint256 ethAmount, uint256 daiAmount, uint256 pethAmount);\n\n    function DaiMaker(IMaker _maker) {\n        maker = _maker;\n        weth = maker.gem();\n        peth = maker.skr();\n        dai = maker.sai();\n    }\n\n    function makeDai(uint256 daiAmount, address cdpOwner, address daiOwner) payable public returns (bytes32 cdpId) {\n        IWETH(weth).deposit.value(msg.value)();      // wrap eth in weth token\n        weth.approve(maker, msg.value);              // allow maker to pull weth\n\n        // calculate how much peth we need to enter with\n        uint256 inverseAsk = rdiv(msg.value, wmul(maker.gap(), maker.per())) - 1;\n\n        maker.join(inverseAsk);                      // convert weth to peth\n        uint256 pethAmount = peth.balanceOf(this);\n\n        peth.approve(maker, pethAmount);             // allow maker to pull peth\n\n        cdpId = maker.open();                        // create cdp in maker\n        maker.lock(cdpId, pethAmount);               // lock peth into cdp\n        maker.draw(cdpId, daiAmount);                // create dai from cdp\n\n        dai.transfer(daiOwner, daiAmount);           // transfer dai to owner\n        maker.give(cdpId, cdpOwner);                 // transfer cdp to owner\n\n        // just in case transfer everything to the cdp owner\n        uint256 ethBalance = address(this).balance;\n        if (ethBalance > 0) {\n            cdpOwner.transfer(ethBalance);\n        }\n\n        uint256 wethBalance = weth.balanceOf(this);\n        if (wethBalance > 0) {\n            weth.transfer(cdpOwner, wethBalance);\n        }\n\n        uint256 pethBalance = peth.balanceOf(this);\n        if (wethBalance > 0) {\n            peth.transfer(cdpOwner, pethBalance);\n        }\n\n        MakeDai(daiOwner, cdpOwner, msg.value, daiAmount, pethAmount);\n    }\n}\n",
  "sourcePath": "/Users/jorge/provident/dai.how/contracts/DaiMaker.sol",
  "compiler": {
    "name": "solc",
    "version": "0.4.18+commit.9cf6e910.Emscripten.clang"
  },
  "schemaVersion": "1.0.1",
  "updatedAt": "2018-11-27T07:21:49.484Z"
}