{
  "contractName": "DaiMaker",
  "abi": [
    {
      "constant": true,
      "inputs": [],
      "name": "weth",
      "outputs": [
        {
          "name": "",
          "type": "address"
        }
      ],
      "payable": false,
      "stateMutability": "view",
      "type": "function"
    },
    {
      "constant": true,
      "inputs": [],
      "name": "maker",
      "outputs": [
        {
          "name": "",
          "type": "address"
        }
      ],
      "payable": false,
      "stateMutability": "view",
      "type": "function"
    },
    {
      "constant": false,
      "inputs": [
        {
          "name": "daiAmount",
          "type": "uint256"
        },
        {
          "name": "cdpOwner",
          "type": "address"
        },
        {
          "name": "daiOwner",
          "type": "address"
        }
      ],
      "name": "makeDai",
      "outputs": [
        {
          "name": "cdpId",
          "type": "bytes32"
        }
      ],
      "payable": true,
      "stateMutability": "payable",
      "type": "function"
    },
    {
      "constant": true,
      "inputs": [],
      "name": "peth",
      "outputs": [
        {
          "name": "",
          "type": "address"
        }
      ],
      "payable": false,
      "stateMutability": "view",
      "type": "function"
    },
    {
      "constant": true,
      "inputs": [],
      "name": "dai",
      "outputs": [
        {
          "name": "",
          "type": "address"
        }
      ],
      "payable": false,
      "stateMutability": "view",
      "type": "function"
    },
    {
      "inputs": [
        {
          "name": "_maker",
          "type": "address"
        }
      ],
      "payable": false,
      "stateMutability": "nonpayable",
      "type": "constructor"
    },
    {
      "anonymous": false,
      "inputs": [
        {
          "indexed": true,
          "name": "daiOwner",
          "type": "address"
        },
        {
          "indexed": true,
          "name": "cdpOwner",
          "type": "address"
        },
        {
          "indexed": false,
          "name": "ethAmount",
          "type": "uint256"
        },
        {
          "indexed": false,
          "name": "daiAmount",
          "type": "uint256"
        }
      ],
      "name": "MakeDai",
      "type": "event"
    }
  ],
  "bytecode": "0x6060604052341561000f57600080fd5b604051602080610f6383398101604052808051906020019091905050806000806101000a81548173ffffffffffffffffffffffffffffffffffffffff021916908373ffffffffffffffffffffffffffffffffffffffff1602179055506000809054906101000a900473ffffffffffffffffffffffffffffffffffffffff1673ffffffffffffffffffffffffffffffffffffffff16637bd2bea76000604051602001526040518163ffffffff167c0100000000000000000000000000000000000000000000000000000000028152600401602060405180830381600087803b15156100f857600080fd5b6102c65a03f1151561010957600080fd5b50505060405180519050600160006101000a81548173ffffffffffffffffffffffffffffffffffffffff021916908373ffffffffffffffffffffffffffffffffffffffff1602179055506000809054906101000a900473ffffffffffffffffffffffffffffffffffffffff1673ffffffffffffffffffffffffffffffffffffffff16630f8a771e6000604051602001526040518163ffffffff167c0100000000000000000000000000000000000000000000000000000000028152600401602060405180830381600087803b15156101e057600080fd5b6102c65a03f115156101f157600080fd5b50505060405180519050600260006101000a81548173ffffffffffffffffffffffffffffffffffffffff021916908373ffffffffffffffffffffffffffffffffffffffff1602179055506000809054906101000a900473ffffffffffffffffffffffffffffffffffffffff1673ffffffffffffffffffffffffffffffffffffffff16639166cba46000604051602001526040518163ffffffff167c0100000000000000000000000000000000000000000000000000000000028152600401602060405180830381600087803b15156102c857600080fd5b6102c65a03f115156102d957600080fd5b50505060405180519050600360006101000a81548173ffffffffffffffffffffffffffffffffffffffff021916908373ffffffffffffffffffffffffffffffffffffffff16021790555050610c30806103336000396000f30060606040526004361061006d576000357c0100000000000000000000000000000000000000000000000000000000900463ffffffff1680633fc8cef31461007257806350655d8c146100c75780635e5d926c1461011c5780637d211c751461018e578063f4b9fa75146101e3575b600080fd5b341561007d57600080fd5b610085610238565b604051808273ffffffffffffffffffffffffffffffffffffffff1673ffffffffffffffffffffffffffffffffffffffff16815260200191505060405180910390f35b34156100d257600080fd5b6100da61025e565b604051808273ffffffffffffffffffffffffffffffffffffffff1673ffffffffffffffffffffffffffffffffffffffff16815260200191505060405180910390f35b610170600480803590602001909190803573ffffffffffffffffffffffffffffffffffffffff1690602001909190803573ffffffffffffffffffffffffffffffffffffffff16906020019091905050610283565b60405180826000191660001916815260200191505060405180910390f35b341561019957600080fd5b6101a1610bb8565b604051808273ffffffffffffffffffffffffffffffffffffffff1673ffffffffffffffffffffffffffffffffffffffff16815260200191505060405180910390f35b34156101ee57600080fd5b6101f6610bde565b604051808273ffffffffffffffffffffffffffffffffffffffff1673ffffffffffffffffffffffffffffffffffffffff16815260200191505060405180910390f35b600160009054906101000a900473ffffffffffffffffffffffffffffffffffffffff1681565b6000809054906101000a900473ffffffffffffffffffffffffffffffffffffffff1681565b600080600160009054906101000a900473ffffffffffffffffffffffffffffffffffffffff1673ffffffffffffffffffffffffffffffffffffffff1663d0e30db0346040518263ffffffff167c01000000000000000000000000000000000000000000000000000000000281526004016000604051808303818588803b151561030b57600080fd5b6125ee5a03f1151561031c57600080fd5b50505050600160009054906101000a900473ffffffffffffffffffffffffffffffffffffffff1673ffffffffffffffffffffffffffffffffffffffff1663095ea7b36000809054906101000a900473ffffffffffffffffffffffffffffffffffffffff16346000604051602001526040518363ffffffff167c0100000000000000000000000000000000000000000000000000000000028152600401808373ffffffffffffffffffffffffffffffffffffffff1673ffffffffffffffffffffffffffffffffffffffff16815260200182815260200192505050602060405180830381600087803b151561040e57600080fd5b6102c65a03f1151561041f57600080fd5b50505060405180519050506000809054906101000a900473ffffffffffffffffffffffffffffffffffffffff1673ffffffffffffffffffffffffffffffffffffffff1663049878f36000809054906101000a900473ffffffffffffffffffffffffffffffffffffffff1673ffffffffffffffffffffffffffffffffffffffff1663e47e7e66346000604051602001526040518263ffffffff167c010000000000000000000000000000000000000000000000000000000002815260040180828152602001915050602060405180830381600087803b15156104ff57600080fd5b6102c65a03f1151561051057600080fd5b505050604051805190506040518263ffffffff167c010000000000000000000000000000000000000000000000000000000002815260040180828152602001915050600060405180830381600087803b151561056b57600080fd5b6102c65a03f1151561057c57600080fd5b505050600260009054906101000a900473ffffffffffffffffffffffffffffffffffffffff1673ffffffffffffffffffffffffffffffffffffffff166370a08231306000604051602001526040518263ffffffff167c0100000000000000000000000000000000000000000000000000000000028152600401808273ffffffffffffffffffffffffffffffffffffffff1673ffffffffffffffffffffffffffffffffffffffff168152602001915050602060405180830381600087803b151561064457600080fd5b6102c65a03f1151561065557600080fd5b505050604051805190509050600260009054906101000a900473ffffffffffffffffffffffffffffffffffffffff1673ffffffffffffffffffffffffffffffffffffffff1663095ea7b36000809054906101000a900473ffffffffffffffffffffffffffffffffffffffff16836000604051602001526040518363ffffffff167c0100000000000000000000000000000000000000000000000000000000028152600401808373ffffffffffffffffffffffffffffffffffffffff1673ffffffffffffffffffffffffffffffffffffffff16815260200182815260200192505050602060405180830381600087803b151561074f57600080fd5b6102c65a03f1151561076057600080fd5b50505060405180519050506000809054906101000a900473ffffffffffffffffffffffffffffffffffffffff1673ffffffffffffffffffffffffffffffffffffffff1663fcfff16f6000604051602001526040518163ffffffff167c0100000000000000000000000000000000000000000000000000000000028152600401602060405180830381600087803b15156107f857600080fd5b6102c65a03f1151561080957600080fd5b5050506040518051905091506000809054906101000a900473ffffffffffffffffffffffffffffffffffffffff1673ffffffffffffffffffffffffffffffffffffffff1663b3b77a5183836040518363ffffffff167c010000000000000000000000000000000000000000000000000000000002815260040180836000191660001916815260200182815260200192505050600060405180830381600087803b15156108b457600080fd5b6102c65a03f115156108c557600080fd5b5050506000809054906101000a900473ffffffffffffffffffffffffffffffffffffffff1673ffffffffffffffffffffffffffffffffffffffff1663440f19ba83876040518363ffffffff167c010000000000000000000000000000000000000000000000000000000002815260040180836000191660001916815260200182815260200192505050600060405180830381600087803b151561096757600080fd5b6102c65a03f1151561097857600080fd5b505050600360009054906101000a900473ffffffffffffffffffffffffffffffffffffffff1673ffffffffffffffffffffffffffffffffffffffff1663a9059cbb84876000604051602001526040518363ffffffff167c0100000000000000000000000000000000000000000000000000000000028152600401808373ffffffffffffffffffffffffffffffffffffffff1673ffffffffffffffffffffffffffffffffffffffff16815260200182815260200192505050602060405180830381600087803b1515610a4857600080fd5b6102c65a03f11515610a5957600080fd5b50505060405180519050506000809054906101000a900473ffffffffffffffffffffffffffffffffffffffff1673ffffffffffffffffffffffffffffffffffffffff1663baa8529c83866040518363ffffffff167c01000000000000000000000000000000000000000000000000000000000281526004018083600019166000191681526020018273ffffffffffffffffffffffffffffffffffffffff1673ffffffffffffffffffffffffffffffffffffffff16815260200192505050600060405180830381600087803b1515610b2f57600080fd5b6102c65a03f11515610b4057600080fd5b5050508373ffffffffffffffffffffffffffffffffffffffff168373ffffffffffffffffffffffffffffffffffffffff167f980ee29f2182ba59418ca10e95f196c07a58ba40ed915a6584f582a4aaab5fbc3488604051808381526020018281526020019250505060405180910390a3509392505050565b600260009054906101000a900473ffffffffffffffffffffffffffffffffffffffff1681565b600360009054906101000a900473ffffffffffffffffffffffffffffffffffffffff16815600a165627a7a7230582010a5bc7ce74655ca4ccf9aa42b3d8c7fb6c739ddfbe58ab5ec0342818a7fdd420029",
  "source": "pragma solidity 0.4.18;\n\nimport \"./IMaker.sol\";\nimport \"./ERC20.sol\";\nimport \"./IWETH.sol\";\n\ncontract DaiMaker {\n    IMaker public maker;\n    ERC20 public weth;\n    ERC20 public peth;\n    ERC20 public dai;\n\n    event MakeDai(address indexed daiOwner, address indexed cdpOwner, uint256 ethAmount, uint256 daiAmount);\n\n    function DaiMaker(IMaker _maker) {\n        maker = _maker;\n        weth = maker.gem();\n        peth = maker.skr();\n        dai = maker.sai();\n    }\n\n    function makeDai(uint256 daiAmount, address cdpOwner, address daiOwner) payable public returns (bytes32 cdpId) {\n        IWETH(weth).deposit.value(msg.value)();     // wrap eth in weth token\n        weth.approve(maker, msg.value);             // allow maker to pull weth\n\n        maker.join(maker.ask(msg.value));           // convert weth to peth\n        uint256 pethAmount = peth.balanceOf(this);\n        peth.approve(maker, pethAmount);            // allow maker to pull peth\n\n        cdpId = maker.open();                       // create cdp in maker\n        maker.lock(cdpId, pethAmount);              // lock peth into cdp\n        maker.draw(cdpId, daiAmount);               // create dai from cdp\n\n        dai.transfer(daiOwner, daiAmount);          // transfer dai to owner\n        maker.give(cdpId, cdpOwner);                // transfer cdp to owner\n\n        MakeDai(daiOwner, cdpOwner, msg.value, daiAmount);\n    }\n}\n",
  "sourcePath": "/Users/jorge/provident/dai.how/contracts/DaiMaker.sol",
  "compiler": {
    "name": "solc",
    "version": "0.4.18+commit.9cf6e910.Emscripten.clang"
  },
  "schemaVersion": "1.0.1",
  "updatedAt": "2018-02-18T01:44:23.036Z"
}